8=FIX.4.4|9=78|35=A|34=1|49=TestClient|52=20171218-09:05:29.621|56=Gateway|98=0|108=30|141=Y|10=011|8=FIX.4.4|9=118|35=x|34=2|49=TestClient|52=20171218-09:05:35.346|56=Gateway|55=BTC/USD|320=d9d89a77-bfb3-40d4-9004-ceabdf80c540|559=0|10=125|8=FIX.4.4|9=154|35=V|34=3|49=TestClient|52=20171218-09:05:42.820|56=Gateway|262=3741d8f1-beac-4ece-8985-2d9c29839284|263=0|264=5|265=0|267=2|269=0|269=1|146=1|55=BTC/USD|10=049|8=FIX.4.4|9=204|35=D|34=4|49=TestClient|52=20171218-09:05:45.592|56=Gateway|1=54b97c9e-202b-11b2-be90-529049f1f1bb|11=35809ccf-d96e-4470-9c07-46b6ca77b76b|38=0.1|40=2|44=1|54=1|55=BTC/USD|60=20171218-12:05:44.125|660=99|10=013|8=FIX.4.4|9=198|35=G|34=5|49=TestClient|52=20171218-09:05:57.972|56=Gateway|11=a881c14b-e2d6-4ddc-a007-d4872f9219ca|38=0.2|40=2|41=35809ccf-d96e-4470-9c07-46b6ca77b76b|44=2|54=1|55=BTC/USD|60=20171218-12:05:53.403|10=112|8=FIX.4.4|9=116|35=H|34=6|49=TestClient|52=20171218-09:06:08.884|56=Gateway|11=a881c14b-e2d6-4ddc-a007-d4872f9219ca|54=1|55=BTC/USD|10=183|8=FIX.4.4|9=188|35=F|34=7|49=TestClient|52=20171218-09:06:14.182|56=Gateway|11=9a3c1f59-91d8-4d7c-9a38-8aea175263a5|38=0.1|41=a881c14b-e2d6-4ddc-a007-d4872f9219ca|54=1|55=BTC/USD|60=20171218-12:06:12.686|10=186|8=FIX.4.4|9=124|35=AF|34=8|49=TestClient|52=20171218-09:06:27.483|56=Gateway|54=1|55=BTC/USD|584=3ba66199-9bbf-48e3-a6a5-455a3ecd83dd|585=7|10=135|8=FIX.4.4|9=60|35=5|34=9|49=TestClient|52=20171218-09:06:35.799|56=Gateway|10=198|